:100000000C942B000C9453000C9453000C9453004C
:100010000C9453000C9453000C9453000C94530014
:100020000C9453000C9453000C9453000C94530004
:100030000C9453000C9453000C9453000C945300F4
:100040000C9453000C9453000C9453000C945300E4
:100050000C945300B80011241FBECFE5D4E0DEBFDE
:10006000CDBF10E0A0E6B0E0ECEAF8E002C00590F9
:100070000D92A636B107D9F720E0A6E6B0E001C0A0
:100080001D92AA36B207E1F710E0CBE2D0E004C03F
:100090002197FE010E944E04CA32D107C9F70E947F
:1000A00071000C9454040C9400005D9BFECF8CB93D
:1000B000089587B3806B87BB8DB181658DB9C49A74
:1000C0000895CF93DF93EC018881882339F021963E
:1000D00090E00E94550089918111FACFDF91CF9174
:1000E0000895CF93DF93CDB7DEB760970FB6F8943E
:1000F000DEBF0FBECDBF0E94590087E689B986E8F2
:1001000080BD88E08AB986E690E00E947B0180E6A7
:1001100090E00E9461007E0186E0E80EF11CAE01D5
:100120004F5F5F4F66E286E690E00E94D502811144
:10013000F6CFBE016F5F7F4F86E690E00E940F030F
:100140008E010F5F1F4FF80181918F0190E00E9497
:1001500055000E151F05B9F7BE016F5F7F4F86E68C
:1001600090E00E94BC0386E690E00E940F04D7CF87
:1001700040E050E064E070E086E690E00E94C60057
:1001800008958FB9779BFECF8FB10895FC016083EE
:10019000718377B321E030E0C90102C0880F991F55
:1001A0006A95E2F7872B87BB68B3C901008002C05C
:1001B000880F991F0A94E2F7862B88BB42835383EA
:1001C00057B3C90102C0880F991F4A95E2F7852BE2
:1001D00087BB88B3028002C0220F331F0A94E2F764
:1001E000282B28BB0895FF920F931F93CF93DF9383
:1001F0008C01F42E98B3C1E0D0E09E01F80100809C
:1002000002C0220F331F0A94E2F7822F80958923C0
:1002100088BB862F880F8E770E94C1008F2D0E9489
:10022000C10088B3F801008002C0CC0FDD1F0A9422
:10023000E2F7C82BC8BBDF91CF911F910F91FF90C0
:1002400008950F931F93CF93DF938C0128B3C1E0E0
:10025000D0E0AE01FC01008002C0440F551F0A949B
:10026000E2F7942F9095922398BB862F880F8E7774
:1002700080680E94C10080E00E94C10098B3F8012C
:10028000008002C0CC0FDD1F0A94E2F7C92BC8BB67
:10029000DF91CF911F910F9108954FE061E00E948F
:1002A000F30008950F931F93CF93DF938C01D62F04
:1002B000C42F0E942101482F4C2B6D2FC8010E9492
:1002C000F300DF91CF911F910F9108950F931F932A
:1002D000CF93DF938C01D62FC42F0E942101C095AC
:1002E0004C2F48236D2FC8010E94F300DF91CF915E
:1002F0001F910F910895CF93DF93EC0128B381E014
:1003000090E0088002C0880F991F0A94E2F7822BC0
:1003100088BBCE010E944D014DE86AE2CE010E94E9
:10032000F3004EE36BE2CE010E94F3004EE16DE27A
:10033000CE010E94F30040E06CE2CE010E94F30087
:1003400040E465E1CE010E94F3004DE361E1CE019E
:100350000E94F30043E064E1CE010E945201DF916C
:10036000CF9108955F926F927F928F929F92AF92FA
:10037000BF92CF92DF92EF92FF920F931F93CF9392
:10038000DF936C01562EC42FD52F490137018CE025
:10039000681709F4C2C09EE0691308C06894FF247E
:1003A000F4F80F2EF2E1EF2EF02D02C0F12CE12C2B
:1003B0004E2D406862E0C6010E94F30040E864E010
:1003C000C6010E94660140E86AE0C6010E9452012F
:1003D00040E061E0C6010E94F300181419047CF4A7
:1003E000AC2EBD2EC0E0D0E0F50141915F0169E087
:1003F000C6010E94F3002196C815D905ACF3452D1E
:1004000061E0C6010E94F300FCE05F1205C040E815
:100410006DE0C6010E9452018FE097E20197F1F76B
:1004200000C0000064E0C6010E942101B82EC8E1AE
:10043000D0E09F2D9160F92E0EC0EFE0F7E23197EA
:10044000F1F700C0000064E0C6010E942101B82E4F
:10045000219709F482C08F2D8B2179F386C08E2DD0
:100460008170B822D1E0C0E009F4D0E0FCE05F1276
:100470008AC06AE0C6010E942101F82E6CE0C60124
:100480000E942101282F277079F08F2D90E001978D
:10049000880F991F880F991F880F991F820F911D30
:1004A000F301918380830BC08F2D90E0880F991FFB
:1004B000880F991F880F991FF30191838083FF2074
:1004C00051F08F2D813108F080E1A82EB12C1A1443
:1004D0001B0424F058C0AA24A394B12CE02EF12EC2
:1004E00000E010E069E0C6010E942101F70181935C
:1004F0007F010F5F1F4F0A151B05A4F344C04CE09A
:1005000061E0C6010E94F3000F2EF0E3FF2EF02DF4
:100510000F2EF7E7EF2EF02D7ACF47EF62E0C601FE
:100520000E94F30040E864E0C6010E94660140E8D2
:100530006AE0C6010E94520140E061E0C6010E94EB
:10054000F30018141904DCF60F2EF0E3FF2EF02D43
:100550000F2EF7E7EF2EF02D43CF40E86DE0C601F8
:100560000E946601D2E0C0E00EC040E86DE0C60126
:100570000E94660166E0C6010E9421018D7109F4A6
:100580006ECFD2E0C0E08D2F9C2FDF91CF911F91D5
:100590000F91FF90EF90DF90CF90BF90AF909F9022
:1005A0008F907F906F905F900895AF92BF92CF929F
:1005B000DF92EF92FF920F931F93CF93DF9300D0C0
:1005C000CDB7DEB75C01162F6A0147E06DE00E94EF
:1005D000F300F6011083CE0101967C01860121E033
:1005E00030E0A6016CE0C5010E94B201009741F421
:1005F00029813A812031310529F082E090E002C062
:1006000082E090E00F900F90DF91CF911F910F91BA
:10061000FF90EF90DF90CF90BF90AF900895AF9292
:10062000BF92CF92DF92EF92FF920F931F93CF93DF
:10063000DF9300D0CDB7DEB75C016B0140E06DE029
:100640000E94F30083E9F601808380E28183CE017A
:1006500001967C01860122E030E0A6016CE0C50134
:100660000E94B201BC01892B49F529813A813323CB
:1006700014F4295F3F4F3595279535952795359586
:100680002795C9010197181619066CF4F601AC01FB
:10069000D601A80FB91F90E021919227EA17FB0716
:1006A000D9F79A0103C090E020E030E0F601E20FB4
:1006B000F31F8081891711F062E070E0CB010F9089
:1006C0000F90DF91CF911F910F91FF90EF90DF90EE
:1006D000CF90BF90AF900895AF92BF92CF92DF922C
:1006E000EF92FF920F931F93CF93DF938C015B01E7
:1006F0006A01790144E065E00E94660140E86AE031
:10070000C8010E9452011C141D045CF4E501CA0CCE
:10071000DB1C499169E0C8010E94F300CC15DD059E
:10072000C1F743E061E0C8010E94F30065E0C80141
:100730000E942101CEEFD0E006C065E0C8010E9412
:100740002101219711F082FFF8CF62E2C8010E94D7
:100750002101F701808361E2C8010E942101F701B4
:100760008183DF91CF911F910F91FF90EF90DF90E8
:10077000CF90BF90AF900895CF92DF92EF92FF920B
:100780000F931F93CF93DF93CDB7DEB72B970FB6A1
:10079000F894DEBF0FBECDBF6C0183E98B8380E789
:1007A0008C83A62FB72FFE0135969E01265F3F4F03
:1007B0008D918193E217F307D9F79E01265F3F4F92
:1007C00047E050E0BE016D5F7F4FC6010E946C03A1
:1007D000CE0101967C018E010D5F1F4F29E030E0B4
:1007E000A8016CE0C6010E94B201892B31F4898115
:1007F0009A81489721F48B8103C080E001C080E09A
:100800002B960FB6F894DEBF0FBECDBFDF91CF9110
:100810001F910F91FF90EF90DF90CF900895CF92AE
:10082000DF92EF92FF920F931F93CF93DF9300D04D
:1008300000D000D0CDB7DEB76C0180E58B831C8281
:100840009E012B5F3F4F42E050E0BE016D5F7F4F46
:10085000C6010E946C03CE0101967C018E010D5FE2
:100860001F4F24E030E0A8016CE0C6010E94B201F5
:100870008C0148E068E0C6010E946601C801269626
:100880000FB6F894DEBF0FBECDBFDF91CF911F91A1
:100890000F91FF90EF90DF90CF900895EE0FFF1F24
:0C08A0000590F491E02D0994F894FFCF2E
:0608AC00535441525400B8
:00000001FF
